:020000040800F2
:1000000000500020A91C0008391C00083F1C0008F3
:10001000451C00084B1C0008511C00080000000093
:10002000000000000000000000000000571C000855
:10003000631C0008000000006F1C00087B1C000807
:10004000F11C0008F11C0008F11C0008F11C00085C
:10005000F11C0008F11C0008F11C0008F11C00084C
:10006000F11C0008F11C0008F11C0008F11C00083C
:10007000F11C0008F11C0008F11C0008F11C00082C
:10008000F11C0008F11C0008F11C0008F11C00081C
:10009000F11C0008F11C0008F11C0008F11C00080C
:1000A000F11C0008F11C0008F11C0008F11C0008FC
:1000B000891C0008F11C0008F11C0008F11C000854
:1000C000F11C0008F11C0008F11C0008F11C0008DC
:1000D000F11C0008F11C0008F11C0008F11C0008CC
:1000E000F11C0008F11C0008F11C000800000000D1
:1000F0000000000000000000000000000000000000
:0C01000000000000000000005FF808F1A3
:10010C0010B5054C237833B9044B13B10448AFF345
:10011C0000800123237010BD30000020000000007F
:10012C004C33000808B5034B1BB103490348AFF32C
:10013C00008008BD00000000340000204C33000893
:10014C0081F0004102E000BF83F0004330B54FEA7C
:10015C0041044FEA430594EA050F08BF90EA020FE9
:10016C001FBF54EA000C55EA020C7FEA645C7FEA7C
:10017C00655C00F0E2804FEA5454D4EB5555B8BF9F
:10018C006D420CDD2C4480EA020281EA030382EA10
:10019C00000083EA010180EA020281EA0303362DA2
:1001AC0088BF30BD11F0004F4FEA01314FF4801C75
:1001BC004CEA113102D0404261EB410113F0004F87
:1001CC004FEA03334CEA133302D0524263EB43033E
:1001DC0094EA050F00F0A780A4F10104D5F1200EDC
:1001EC000DDB02FA0EFC22FA05F2801841F1000137
:1001FC0003FA0EF2801843FA05F359410EE0A5F10B
:10020C0020050EF1200E012A03FA0EFC28BF4CF03B
:10021C00020C43FA05F3C01851EBE37101F00045F1
:10022C0007D54FF0000EDCF1000C7EEB00006EEBFE
:10023C000101B1F5801F1BD3B1F5001F0CD3490888
:10024C005FEA30004FEA3C0C04F101044FEA4452DF
:10025C0012F5800F80F09A80BCF1004F08BF5FEA66
:10026C00500C50F1000041EB045141EA050130BD46
:10027C005FEA4C0C404141EB0101013C28BFB1F558
:10028C00801FE9D291F0000F04BF01460020B1FAA3
:10029C0081F308BF2033A3F10B03B3F120020CDA76
:1002AC000C3208DD02F1140CC2F10C0201FA0CF054
:1002BC0021FA02F10CE002F11402D8BFC2F1200CB9
:1002CC0001FA02F120FA0CFCDCBF41EA0C0190406F
:1002DC00E41AA2BF01EB0451294330BD6FEA0404B8
:1002EC001F3C1CDA0C340EDC04F11404C4F12002A3
:1002FC0020FA04F001FA02F340EA030021FA04F3B5
:10030C0045EA030130BDC4F10C04C4F1200220FA0B
:10031C0002F001FA04F340EA0300294630BD21FA49
:10032C0004F0294630BD94F0000F83F4801306BF0F
:10033C0081F480110134013D4EE77FEA645C18BF03
:10034C007FEA655C29D094EA050F08BF90EA020F9A
:10035C0005D054EA000C04BF1946104630BD91EA92
:10036C00030F1EBF0021002030BD5FEA545C05D195
:10037C004000494128BF41F0004130BD14F58004D4
:10038C003CBF01F5801130BD01F0004545F0FE4148
:10039C0041F470014FF0000030BD7FEA645C1ABF7D
:1003AC00194610467FEA655C1CBF0B46024650EAB4
:1003BC00013406BF52EA033591EA030F41F40021E0
:1003CC0030BD00BF90F0000F04BF0021704730B566
:1003DC004FF4806404F132044FF000054FF000013B
:1003EC0050E700BF90F0000F04BF0021704730B5FC
:1003FC004FF4806404F1320410F0004548BF4042D1
:10040C004FF000013EE700BF42004FEAE2014FEA25
:10041C0031014FEA02701FBF12F07F4393F07F4F00
:10042C0081F06051704732F07F4208BF704793F003
:10043C007F4F04BF41F40021704730B54FF4607416
:10044C0001F0004521F000411CE700BF50EA010219
:10045C0008BF704730B54FF000050AE050EA0102C2
:10046C0008BF704730B511F0004502D5404261EB32
:10047C0041014FF4806404F132045FEA915C3FF473
:10048C00D8AE4FF003025FEADC0C18BF03325FEA10
:10049C00DC0C18BF033202EBDC02C2F1200300FAC1
:1004AC0003FC20FA02F001FA03FE40EA0E0021FAE6
:1004BC0002F11444BDE600BF70B54FF0FF0C4CF4D4
:1004CC00E06C1CEA11541DBF1CEA135594EA0C0F86
:1004DC0095EA0C0F00F0DEF82C4481EA030621EAC1
:1004EC004C5123EA4C5350EA013518BF52EA0335FC
:1004FC0041F4801143F4801338D0A0FB02CE4FF0AE
:10050C000005E1FB02E506F00042E0FB03E54FF0DD
:10051C000006E1FB03569CF0000F18BF4EF0010ED5
:10052C00A4F1FF04B6F5007F64F5407404D25FEAD1
:10053C004E0E6D4146EB060642EAC62141EA555184
:10054C004FEAC52040EA5E504FEACE2EB4F1FD0CC6
:10055C0088BFBCF5E06F1ED8BEF1004F08BF5FEA44
:10056C00500E50F1000041EB045170BD06F00046F6
:10057C0046EA010140EA020081EA0301B4EB5C04A3
:10058C00C2BFD4EB0C0541EA045170BD41F480119B
:10059C004FF0000E013C00F3AB8014F1360FDEBFC0
:1005AC00002001F0004170BDC4F10004203C35DA9C
:1005BC000C341BDC04F11404C4F1200500FA05F31F
:1005CC0020FA04F001FA05F240EA020001F00042C0
:1005DC0021F0004110EBD37021FA04F642EB060136
:1005EC005EEA430E08BF20EAD37070BDC4F10C0460
:1005FC00C4F1200500FA04F320FA05F001FA04F224
:10060C0040EA020001F0004110EBD37041F100010F
:10061C005EEA430E08BF20EAD37070BDC4F120051A
:10062C0000FA05F24EEA020E20FA04F301FA05F282
:10063C0043EA020321FA04F001F0004121FA04F22A
:10064C0020EA020000EBD3705EEA430E08BF20EAFA
:10065C00D37070BD94F0000F0FD101F00046400034
:10066C0041EB010111F4801F08BF013CF7D041EAB6
:10067C00060195F0000F18BF704703F000465200BA
:10068C0043EB030313F4801F08BF013DF7D043EA8B
:10069C000603704794EA0C0F0CEA135518BF95EA41
:1006AC000C0F0CD050EA410618BF52EA4306D1D1C8
:1006BC0081EA030101F000414FF0000070BD50EAE7
:1006CC00410606BF1046194652EA430619D094EA71
:1006DC000C0F02D150EA013613D195EA0C0F05D15B
:1006EC0052EA03361CBF104619460AD181EA0301AF
:1006FC0001F0004141F0FE4141F470014FF0000067
:10070C0070BD41F0FE4141F4780170BD70B54FF001
:10071C00FF0C4CF4E06C1CEA11541DBF1CEA135581
:10072C0094EA0C0F95EA0C0F00F0A7F8A4EB050463
:10073C0081EA030E52EA03354FEA013100F088805A
:10074C004FEA03334FF0805545EA131343EA126323
:10075C004FEA022245EA111545EA10654FEA0026D8
:10076C000EF000419D4208BF964244F1FD0404F591
:10077C00407402D25B084FEA3202B61A65EB0305ED
:10078C005B084FEA32024FF480104FF4002CB6EBAA
:10079C00020E75EB030E22BFB61A754640EA0C002A
:1007AC005B084FEA3202B6EB020E75EB030E22BF6A
:1007BC00B61A754640EA5C005B084FEA3202B6EBAB
:1007CC00020E75EB030E22BFB61A754640EA9C006A
:1007DC005B084FEA3202B6EB020E75EB030E22BF3A
:1007EC00B61A754640EADC0055EA060E18D04FEAF8
:1007FC00051545EA16754FEA06164FEAC30343EA98
:10080C0052734FEAC2025FEA1C1CC0D111F4801F64
:10081C000BD141EA00014FF000004FF0004CB6E75D
:10082C0011F4801F04BF01430020B4F1FD0C88BFFC
:10083C00BCF5E06F3FF6AFAEB5EB030C04BFB6EB07
:10084C00020C5FEA500C50F1000041EB045170BDFA
:10085C000EF0004E4EEA113114EB5C04C2BFD4EB27
:10086C000C0541EA045170BD41F480114FF0000EAB
:10087C00013C90E645EA060E8DE60CEA135594EA27
:10088C000C0F08BF95EA0C0F3FF43BAF94EA0C0F2A
:10089C000AD150EA01347FF434AF95EA0C0F7FF49F
:1008AC0025AF104619462CE795EA0C0F06D152EAF3
:1008BC0003353FF4FDAE1046194622E750EA4106D7
:1008CC0018BF52EA43067FF4C5AE50EA41047FF4E8
:1008DC000DAF52EA43057FF4EBAE12E74A0011D29A
:1008EC0012F5001211D20DD56FF47873B3EB62527E
:1008FC000ED44FEAC12343F0004343EA505323FA8A
:10090C0002F070474FF00000704750EA013002D1FE
:10091C004FF0FF3070474FF00000704780B483B049
:10092C0000AF00237B604FE035497A6813469B008B
:10093C0013449B000B44023301221A7030497A682D
:10094C0013469B0013449B000B44023318782C492C
:10095C007A6813469B0013449B000B4401330246F8
:10096C001A7027497A6813469B0013449B000B446A
:10097C000133187822497A6813469B0013449B0074
:10098C000B4402461A701E497A6813469B001344A6
:10099C009B000B44043300221A7019497A681346E1
:1009AC009B0013449B000B44033300221A70144920
:1009BC007A6813469B0013449B000B440833962221
:1009CC001A607B6801337B607B68022BACDD0C4BBF
:1009DC000C4ADA600A4B80221A82094B094A1A62C5
:1009EC00074B4FF480729A84054B064A5A63044BAA
:1009FC004FF400721A8700BF0C37BD4680BC70479D
:100A0C004C0000200008014080B582B000AF0023EC
:100A1C007B60D5E06F497A6813469B0013449B00BA
:100A2C000B44013318786B497A6813469B001344C6
:100A3C009B000B4402461A7066497A6813469B0069
:100A4C0013449B000B440233187862497A681346AE
:100A5C009B0013449B000B44013302461A705D4902
:100A6C007A6813469B0013449B000B440C331868A4
:100A7C0058497A6813469B0013449B000B4410336F
:100A8C001B88194601F024FC0346184651497A6824
:100A9C0013469B0013449B000B44023302461A700E
:100AAC004C497A6813469B0013449B000B441978FD
:100ABC0048487A6813469B0013449B000344013357
:100ACC001B78994279D143497A6813469B001344A9
:100ADC009B000B44013319783E487A6813469B00FF
:100AEC0013449B00034402331B78994265D1394966
:100AFC007A6813469B0013449B000B4402331B780B
:100B0C00002B33D133497A6813469B0013449B0066
:100B1C000B44033301221A702E497A6813469B004A
:100B2C0013449B000B4408331B68002B13D029493A
:100B3C007A6813469B0013449B000B4408331B68D4
:100B4C00591E24487A6813469B0013449B000344A7
:100B5C000833196031E01F497A6813469B0013442F
:100B6C009B000B44043301221A7026E019497A6861
:100B7C0013469B0013449B000B44033300221A7052
:100B8C0014497A6813469B0013449B000B440333AF
:100B9C00187810497A6813469B0013449B000B4449
:100BAC00043302461A700B497A6813469B001344AF
:100BBC009B000B44083396221A607B6801337B60E0
:100BCC007B68022B7FF626AF00BF00BF0837BD46FF
:100BDC0080BD00BF4C00002080B483B000AF7860B3
:100BEC007B68022B01D9FF2308E007497A6813467A
:100BFC009B0013449B000B4403331B7818460C37A3
:100C0C00BD4680BC704700BF4C00002080B483B050
:100C1C0000AF78607B68022B01D9FF2308E00749FD
:100C2C007A6813469B0013449B000B4404331B78D7
:100C3C0018460C37BD4680BC704700BF4C000020E6
:100C4C0080B500AF454B1B68454A126811461846E3
:100C5C0000F012FC434B1B78032B73D801A252F803
:100C6C0023F000BF810C0008B10C0008E90C00084F
:100C7C00190D0008002300220121002000F05AFB6E
:100C8C00012300220021012000F054FB344B1B688F
:100C9C00002B59D1344B1B68314A1360314B012264
:100CAC001A7051E0002300220121002000F042FBC9
:100CBC00002301220021012000F03CFB284B1B6883
:100CCC00002B43D1294B1B68244A1360284B1B680B
:100CDC00234A1360234B02221A7037E001230022AF
:100CEC000021002000F026FB00230022012101201E
:100CFC0000F020FB194B1B68002B29D11A4B1B68E9
:100D0C00164A1360174B03221A7021E000230122AC
:100D1C000021002000F00EFB002300220121012005
:100D2C0000F008FB0D4B1B68002B13D1104B1B68FC
:100D3C000A4A13600D4B1B68094A1360094B0022C9
:100D4C001A7007E000BF06E000BF04E000BF02E03D
:100D5C0000BF00E000BF00BF80BD00BF1800002036
:100D6C001C0000208D000020080000200400002042
:100D7C000000002080B500AF324B1B78002B02D056
:100D8C00012B41D05BE0304B1B78032B20D0032B85
:100D9C002BDC012B02D0022B0DD026E000230022ED
:100DAC000121002000F0C6FA0023002201210120BD
:100DBC0000F0C0FA1AE0002301220021002000F00C
:100DCC00B9FA002301220021012000F0B3FA0DE052
:100DDC00012300220021002000F0ACFA01230022A4
:100DEC000021012000F0A6FA00E000BF032000F073
:100DFC00B3FE0346002B21D1124B01221A70FA21AB
:100E0C00032000F04BFE19E00023002200210020FB
:100E1C0000F090FA002300220021012000F08AFA51
:100E2C00032000F099FE0346002B08D1054B00224D
:100E3C001A70FA21032000F031FE00E000BF00BF61
:100E4C0080BD00BF8E0000208B00002080B400AF5E
:100E5C001A4B1B78012B0CD1194B1B680133184A08
:100E6C001360174B1B68632B24D9154B00221A6097
:100E7C0020E0124B1B78022B0CD1124B1B68013358
:100E8C00104A13600F4B1B68632B13D90D4B0022B8
:100E9C001A600FE0094B1B78032B0BD10A4B1B6814
:100EAC000133094A1360084B1B68632B02D9064BAC
:100EBC0000221A6000BFBD4680BC70478C00002029
:100ECC000C000020140000201000002080B500AFA2
:100EDC00002000F041FE0346002B15D18F4B1B78F0
:100EEC00002B08D18E4B1A688E4B1B681A448E4B04
:100EFC001B689A4202D100F0A9FA01E000F000FB55
:100F0C003221002000F0CAFD844B1B78062B00F226
:100F1C00018101A252F823F0410F0008B10F000823
:100F2C00EF0F00082D1000086B100008AF10000820
:100F3C00C31000087A4B1A687A4B1B681A447A4B18
:100F4C001B689A420CD0002300220021002000F0E4
:100F5C00F1F9002300220021012000F0EBF91EE042
:100F6C00012000F0F9FD0346002B16D16F4B1B68D6
:100F7C00002B04D06D4B1B68013B6C4A13606C4B0F
:100F8C001B68002B04D06A4B1B68013B684A13603A
:100F9C004FF47A71012000F081FDFFF751FE00F053
:100FAC00D1F8B8E0634B1B78052B0BD0614B1B7849
:100FBC00042B07D05F4B1B78062B03D05A4B1B68B6
:100FCC005D4A13605C4B1B680221184600F054FA12
:100FDC00FFF7D0FE00F0B6F800F046F900F00AF981
:100FEC0099E0544B1B78052B0BD0524B1B78042BE0
:100FFC0007D0504B1B78062B03D04A4B1B684F4A2B
:10100C0013604E4B1B680321184600F035FAFFF7AE
:10101C00B1FE00F097F800F027F900F0EBF87AE059
:10102C00444B1B78052B0BD0424B1B78042B07D061
:10103C00404B1B78062B03D0394B1B68404A13607E
:10104C003F4B1B680421184600F016FAFFF792FE7E
:10105C0000F078F800F008F900F0CCF85BE0354BC4
:10106C001B78012B04D1344B1B682F4A136010E002
:10107C00304B1B78022B04D1304B1B68294A136070
:10108C0007E02C4B1B78032B03D12D4B1B68244AF8
:10109C001360284B1A78214B1A70264B04221A70B5
:1010AC0039E0FFF7D3FE234B1A781C4B1A70214BF7
:1010BC0005221A702FE01F4B1B78012B06D11E4BFB
:1010CC001B680221184600F0D7F914E0194B1B7865
:1010DC00022B06D1194B1B680321184600F0CCF9E2
:1010EC0009E0144B1B78032B05D1154B1B6804210D
:1010FC00184600F0C1F9042000F02EFD0346002B29
:10110C0005D1FFF7A3FEFA21042000F0C7FC00F084
:10111C00ABF800E000BF00BF80BD00BF8B0000201B
:10112C00040000200800002000000020180000200F
:10113C001C0000208C0000200C000020140000205B
:10114C001000002080B500AF274B1B78002B02D07D
:10115C00012B36D041E00020FFF73EFD0346012B6A
:10116C0027D1224B1A78224B1A70204B1B78032B59
:10117C001AD801A252F823F0951100089D1100080D
:10118C00A5110008AD110008184B01221A700CE0D3
:10119C00164B02221A7008E0144B03221A7004E05A
:1011AC00124B00221A7000E000BF0F4B01221A7084
:1011BC0015E00020FFF710FD0346FF2B0FD1002395
:1011CC000FE00020FFF708FD0346002B03D1064B70
:1011DC0000221A7004E0002303E0002301E000BFAA
:1011EC000123184680BD00BF880000208B00002022
:1011FC008C00002080B500AF184B9B78002B02D0E0
:10120C00012B19D024E00220FFF7E6FC0346012B4A
:10121C000AD1134B1A78134B1A70114B04221A7003
:10122C000E4B01229A7015E00220FFF7D5FC034605
:10123C00FF2B0FD100230FE00220FFF7CDFC03465C
:10124C00002B03D1054B00229A7004E0002303E02D
:10125C00002301E000BF0123184680BD8800002058
:10126C008B0000208C00002080B500AF2E4B5B78EB
:10127C00022B35D0022B4FDC002B02D0012B19D0C6
:10128C004AE00120FFF7A8FC0346012B0AD1274BAB
:10129C001A78274B1A70254B05221A70224B012203
:1012AC005A703BE00120FFF797FC0346FF2B35D12A
:1012BC00002337E00120FFF78FFC0346002B03D1FE
:1012CC00194B00225A702CE00120FFF79FFC0346BB
:1012DC00012B03D1144B02225A7022E0002321E08F
:1012EC00124B1B78062B06D0104B1A78104B1A7029
:1012FC000E4B06221A700120FFF76EFC0346002BE2
:10130C000ED10B4B1A78094B1A70094B06221A7026
:10131C00054B00225A7003E0002303E000BF00E0FD
:10132C0000BF0123184680BD880000208B000020E0
:10133C008C00002080B582B000AF78600846114662
:10134C001A460346FB700B46BB7013467B7029494B
:10135C007A6813465B0013449B000B4418682549BC
:10136C007A6813465B0013449B000B4408331988BE
:10137C00FB78002B0CBF01230023DBB21A4600F0D4
:10138C00BEFF1C497A6813465B0013449B000B4458
:10139C00186818497A6813465B0013449B000B4489
:1013AC00043319887B78002B0CBF01230023DBB29C
:1013BC001A4600F0A4FF0F497A6813465B001344E9
:1013CC009B000B4418680B497A6813465B00134466
:1013DC009B000B4406331988BB78002B0CBF0123F0
:1013EC000023DBB21A4600F08AFF00BF0837BD4667
:1013FC0080BD00BFA400002080B500AF00F004F851
:10140C0000F0F6F900BF80BD80B400AF0D4B0E4A62
:10141C001A600C4B02229A800A4B0422DA80094B88
:10142C0008221A81074B084ADA60064B10221A82EE
:10143C00044B20225A82034B40229A8200BFBD46A5
:10144C0080BC7047A40000200008014080B500AFAC
:10145C00084B1B685A1C07490A60DBB2184600F09F
:10146C0063F8044B1B68032B02D9024B00221A6051
:10147C0000BF80BDBC00002080B483B000AF78609A
:10148C0039607B68002B32D07B68632B2FD83B688C
:10149C00002B2CD03B68632B29D87B68164AA2FB07
:1014AC000323DB08DAB2154B1A707968124BA3FBD5
:1014BC000123DA0813469B0013445B00CA1AD2B20C
:1014CC000E4B5A703B680C4AA2FB0323DB08DAB2C2
:1014DC000A4B9A703968084BA3FB0123DA081346B0
:1014EC009B0013445B00CA1AD2B2044BDA7000BFE3
:1014FC000C37BD4680BC7047CDCCCCCC2000002036
:10150C0080B582B000AF4FF4F063FB80054B1B68D5
:10151C00F9880122184600F0F2FE00BF0837BD46DC
:10152C0080BD00BF9000002080B582B000AF0346A4
:10153C00FB71FB79032B4ED801A252F823F000BFAC
:10154C005D1500087D1500089F150008C1150008E1
:10155C00FFF7D6FF234B1B6800228021184600F0B2
:10156C00CEFE214B1B789BB2184600F08DF835E06F
:10157C00FFF7C6FF1B4B1B6800224FF48071184607
:10158C0000F0BDFE184B5B789BB2184600F07CF85F
:10159C0024E0FFF7B5FF134B1B6800224FF40071DA
:1015AC00184600F0ACFE104B9B789BB2184600F02E
:1015BC006BF813E0FFF7A4FF0A4B1B6800224FF4F3
:1015CC008061184600F09BFE074BDB789BB21846F7
:1015DC0000F05AF802E0FFF793FF00BF00BF083796
:1015EC00BD4680BD900000202000002090B583B047
:1015FC0000AF0446084611461A462346FB710346C3
:10160C00BB710B467B7113463B711E4B1B681D4A0D
:10161C009188FA79184600F072FE1A4B1B68194A29
:10162C00D188BA79184600F06AFE164B1B68154A29
:10163C0011897A79184600F062FE124B1B68114A28
:10164C0051893A79184600F05AFE0E4B1B680D4A28
:10165C0091893A7E184600F052FE0A4B1B68094AE3
:10166C00D1893A7F184600F04AFE064B1B68054AA2
:10167C00118A97F82020184600F041FE00BF0C3765
:10168C00BD4690BD9000002080B586B004AF0346E7
:10169C00FB80FB88092B00F2998001A252F823F001
:1016AC00D5160008EF1600080917000823170008C4
:1016BC003D17000857170008711700088B17000812
:1016CC00A5170008BF1700080123029300230193FC
:1016DC00002300930023002200210020FFF786FF47
:1016EC0081E0012302930123019301230093012341
:1016FC00002200210120FFF779FF74E00023029300
:10170C0001230193002300930023012200210020D8
:10171C00FFF76CFF67E00023029301230193012381
:10172C0000930023002200210020FFF75FFF5AE006
:10173C000023029300230193012300930123002231
:10174C0000210120FFF752FF4DE0002302930023FC
:10175C000193012300930023002201210020FFF7B5
:10176C0045FF40E0002302930023019300230093E4
:10177C000023002201210020FFF738FF33E0012372
:10178C0002930123019301230093012300220021E2
:10179C000020FFF72BFF26E0002302930023019388
:1017AC00002300930023002200210020FFF71EFFDE
:1017BC0019E00023029300230193012300930023DB
:1017CC00002200210020FFF711FF0CE001230293FF
:1017DC000123019301230093012301220121012004
:1017EC00FFF704FF00BF00BF0837BD4680BD00BF38
:1017FC0080B400AF0D4B0E4A1A600C4B01229A803C
:10180C000A4B0222DA80094B04221A81074B082268
:10181C005A81064B10229A81044B2022DA81034B09
:10182C0040221A8200BFBD4680BC70479000002049
:10183C00000C014080B500AF00F056FA00F032F811
:10184C0000F0B8F800F06AF8154801F09FF9322161
:10185C00002000F023F94FF47A71012000F01EF9FA
:10186C000A21022000F01AF9FA21032000F016F9DF
:10187C00FA21042000F012F9FFF7BEFDFFF74EF835
:10188C00022000F069F90346002B05D1FFF7BCF8E4
:10189C000A21022000F002F9FFF718FBF0E700BF65
:1018AC00C000002080B590B000AF07F118032822CB
:1018BC000021184601F018FD3B1D00221A605A60E9
:1018CC009A60DA601A610223BB610123BB621023A8
:1018DC00FB6200237B6307F11803184600F028FD18
:1018EC000346002B01D000F0C9F80F237B600023C6
:1018FC00BB600023FB6000233B6100237B613B1D2D
:10190C000021184600F096FF0346002B01D000F092
:10191C00B5F800BF4037BD4680BD000080B586B02D
:10192C0000AF07F1080300221A605A609A60DA606F
:10193C003B4600221A605A601D4B4FF080421A60E1
:10194C001B4B4F225A601A4B00229A60184B632291
:10195C00DA60174B00221A61154B00229A61144869
:10196C0001F0C4F80346002B01D000F087F84FF4C7
:10197C008053BB6007F1080319460D4801F060FA6B
:10198C000346002B01D000F079F800233B600023C4
:10199C007B603B461946064801F036FC0346002B9B
:1019AC0001D000F06BF800BF1837BD4680BD00BFFA
:1019BC00C000002080B586B000AF07F108030022FC
:1019CC001A605A609A60DA60294B9B69284A43F086
:1019DC0004039361264B9B6903F004037B607B68D3
:1019EC00234B9B69224A43F008039361204B9B696C
:1019FC0003F008033B603B68002240F27E411D4827
:101A0C0000F07DFC002240F2FF711B4800F077FCD7
:101A1C0040F27E43BB600123FB6000233B61022349
:101A2C007B6107F108031946124800F0CDFA4FF418
:101A3C006073BB600023FB6001233B6107F108036B
:101A4C0019460C4800F0C0FA40F2FF73BB6001234A
:101A5C00FB6000233B6102237B6107F108031946FD
:101A6C00054800F0B1FA00BF1837BD4680BD00BF75
:101A7C000010024000080140000C014080B400AF8F
:101A8C0072B600BFFEE780B582B000AF786000F0A0
:101A9C0031F800BF0837BD4680BD000080B582B06C
:101AAC0000AF786039603B684FF47A7202FB03F345
:101ABC001846FEF787FC4FF000020C4BFEF726FE93
:101ACC0002460B4610461946FEF708FF0246084927
:101ADC007B68DB000B445A60054A7B68012102F8E5
:101AEC00331000BF0837BD4680BD00BF00408F409B
:101AFC000801002080B483B000AF00237B601FE09E
:101B0C00144A7B6812F83330002B16D0114A7B68CC
:101B1C00DB0013445B685A1E0E497B68DB000B44E8
:101B2C005A600C4A7B68DB0013445B68002B04D1C1
:101B3C00084A7B68002102F833107B6801337B6014
:101B4C007B68042BDCD900BF00BF0C37BD4680BCC2
:101B5C00704700BF0801002080B483B000AF7860EC
:101B6C00064A7B6812F83330012B0CBF012300238B
:101B7C00DBB218460C37BD4680BC7047080100200C
:101B8C0080B485B000AF154B9B69144A43F0010338
:101B9C009361124B9B6903F00103BB60BB680F4B55
:101BAC00DB690E4A43F08053D3610C4BDB6903F0C5
:101BBC0080537B607B680A4B5B68FB60FB6823F09F
:101BCC00E063FB60FB6843F00073FB60044AFB6856
:101BDC00536000BF1437BD4680BC704700100240F4
:101BEC000000014080B584B000AF78607B681B6852
:101BFC00B3F1804F13D10C4BDB690B4A43F001035B
:101C0C00D361094BDB6903F00103FB60FB68002225
:101C1C0000211C2000F0A1F91C2000F0BAF900BF33
:101C2C001037BD4680BD00BF0010024080B400AF2D
:101C3C00FEE780B400AFFEE780B400AFFEE780B4EF
:101C4C0000AFFEE780B400AFFEE780B400AF00BF8A
:101C5C00BD4680BC704780B400AF00BFBD4680BCA1
:101C6C00704780B400AF00BFBD4680BC704780B5E4
:101C7C0000AF00F07FF800BF80BD000080B500AF62
:101C8C00024800F0D5FF00BF80BD00BFC00000209F
:101C9C0080B400AF00BFBD4680BC7047FFF7F8FFB3
:101CAC000B480C490C4A002302E0D458C4500433AE
:101CBC00C4188C42F9D3094A094C002301E0136083
:101CCC000432A242FBD301F017FBFFF7B3FD7047C0
:101CDC00000000203000002090330008300000206D
:101CEC0034010020FEE7000080B500AF084B1B68F4
:101CFC00074A43F010031360032000F023F90F2070
:101D0C0000F008F8FFF73CFF0023184680BD00BF29
:101D1C000020024080B582B000AF7860124B1A6888
:101D2C00124B1B7819464FF47A73B3FBF1F3B2FBE9
:101D3C00F3F3184600F03BF90346002B01D00123C6
:101D4C000EE07B680F2B0AD8002279684FF0FF3029
:101D5C0000F003F9064A7B681360002300E00123BE
:101D6C0018460837BD4680BD240000202C000020FA
:101D7C002800002080B400AF054B1B781A46054B99
:101D8C001B681344034A136000BFBD4680BC7047F8
:101D9C002C0000203001002080B400AF024B1B68E7
:101DAC001846BD4680BC70473001002080B485B019
:101DBC0000AF78607B6803F00703FB600C4BDB68BB
:101DCC00BB60BA684FF6FF031340BB60FB681A0296
:101DDC00BB68134343F0BF6343F40033BB60044A56
:101DEC00BB68D36000BF1437BD4680BC704700BFD2
:101DFC0000ED00E080B400AF044BDB681B0A03F07D
:101E0C0007031846BD4680BC704700BF00ED00E0DC
:101E1C0080B483B000AF0346FB7197F90730002BF9
:101E2C000BDBFB7903F01F02064997F907305B09BE
:101E3C00012000FA02F241F8232000BF0C37BD4606
:101E4C0080BC704700E100E080B483B000AF034673
:101E5C003960FB7197F90730002B0ADB3B68DAB26B
:101E6C000C4997F907301201D2B20B4483F80023C6
:101E7C000AE03B68DAB20849FB7903F00F03043B34
:101E8C001201D2B20B441A7600BF0C37BD4680BC8F
:101E9C00704700BF00E100E000ED00E080B489B0C5
:101EAC0000AFF860B9607A60FB6803F00703FB6170
:101EBC00FB69C3F10703042B28BF0423BB61FB6937
:101ECC000433062B02D9FB69033B00E000237B6142
:101EDC004FF0FF32BB6902FA03F3DA43BB681A40D6
:101EEC007B699A404FF0FF317B6901FA03F3D943C8
:101EFC007B680B40134318462437BD4680BC7047A3
:101F0C0080B582B000AF78607B68013BB3F1807F15
:101F1C0001D301230FE00A4A7B68013B53600F2178
:101F2C004FF0FF30FFF790FF054B00229A60044BF7
:101F3C0007221A60002318460837BD4680BD00BF33
:101F4C0010E000E080B582B000AF78607868FFF7F1
:101F5C002DFF00BF0837BD4680BD80B586B000AFF1
:101F6C000346B9607A60FB7300237B61FFF742FF85
:101F7C0078617A68B9687869FFF790FF024697F93B
:101F8C000F3011461846FFF75FFF00BF1837BD46EC
:101F9C0080BD80B582B000AF0346FB7197F9073066
:101FAC001846FFF735FF00BF0837BD4680BD80B52A
:101FBC0082B000AF78607868FFF7A2FF034618463E
:101FCC000837BD4680BD000080B48BB000AF786090
:101FDC00396000237B6200233B6269E101227B6A4A
:101FEC0002FA03F3FB613B681B68FA691340BB619F
:101FFC00BA69FB699A4240F058813B685B689A4A1F
:10200C0093425ED0984A934275D8984A934258D0DE
:10201C00964A93426FD8964A934252D0944A93422E
:10202C0069D8944A93424CD0924A934263D8924ACC
:10203C00934246D0904A93425DD8122B2AD8122B49
:10204C0059D801A252F823F0CF200008A92000088B
:10205C00BB200008FD200008032100080321000814
:10206C0003210008032100080321000803210008B4
:10207C0003210008032100080321000803210008A4
:10208C00032100080321000803210008B1200008E7
:10209C00C5200008794A934213D02CE03B68DB68DA
:1020AC003B6229E03B68DB6804333B6224E03B681D
:1020BC00DB6808333B621FE03B68DB680C333B6238
:1020CC001AE03B689B68002B02D104233B6213E0AF
:1020DC003B689B68012B05D108233B627B68FA693E
:1020EC001A6109E008233B627B68FA695A6103E0D4
:1020FC0000233B6200E000BFBB69FF2B01D87B686B
:10210C0001E07B6804337B61BB69FF2B02D87B6ADF
:10211C009B0002E07B6A083B9B003B617B691A6871
:10212C000F213B6901FA03F3DB431A40396A3B691F
:10213C0001FA03F31A437B691A603B685B6803F08E
:10214C008053002B00F0B1804D4B9B694C4A43F0FF
:10215C00010393614A4B9B6903F00103BB60BB68AD
:10216C00484A7B6A9B08023352F82330FB607B6A37
:10217C0003F003039B000F2202FA03F3DB43FA681C
:10218C001340FB607B68404A934213D07B683F4A04
:10219C0093420DD07B683E4A934207D07B683D4A00
:1021AC00934201D1032306E0042304E0022302E05E
:1021BC00012300E000237A6A02F0030292009340AC
:1021CC00FA681343FB602F497B6A9B080233FA6859
:1021DC0041F823203B685B6803F48013002B06D086
:1021EC002D4B9A682C49BB6913438B6006E02A4B34
:1021FC009A68BB69DB43284913408B603B685B687A
:10220C0003F40013002B06D0234BDA682249BB6978
:10221C001343CB6006E0204BDA68BB69DB431E49F5
:10222C001340CB603B685B6803F40033002B06D093
:10223C00194B5A681849BB6913434B6006E0164B9F
:10224C005A68BB69DB43144913404B603B685B68BD
:10225C0003F48033002B21D00F4B1A680E49BB6955
:10226C0013430B6021E000BF00003210000031105E
:10227C0000002210000021100000121000001110AC
:10228C00001002400000014000080140000C014019
:10229C000010014000140140000401400B4B1A686F
:1022AC00BB69DB43094913400B607B6A01337B62DA
:1022BC003B681A687B6A22FA03F3002B7FF48EAE1C
:1022CC0000BF00BF2C37BD4680BC704700040140E6
:1022DC0080B485B000AF78600B467B807B689A68D1
:1022EC007B881340002B02D00123FB7301E00023F9
:1022FC00FB73FB7B18461437BD4680BC704780B41B
:10230C0083B000AF78600B467B8013467B707B7884
:10231C00002B03D07A887B681A6103E07B881A044F
:10232C007B681A6100BF0C37BD4680BC704700004B
:10233C0080B586B000AF78607B68002B01D101239B
:10234C0072E27B681B6803F00103002B00F08780AE
:10235C00924B5B6803F00C03042B0CD08F4B5B6827
:10236C0003F00C03082B12D18C4B5B6803F4803305
:10237C00B3F5803F0BD1894B1B6803F40033002B62
:10238C006CD07B685B68002B68D101234CE27B68C6
:10239C005B68B3F5803F06D1804B1B687F4A43F4E2
:1023AC00803313602EE07B685B68002B0CD17B4B79
:1023BC001B687A4A23F480331360784B1B68774A86
:1023CC0023F4802313601DE07B685B68B3F5A02FBA
:1023DC000CD1724B1B68714A43F4802313606F4B12
:1023EC001B686E4A43F4803313600BE06B4B1B6825
:1023FC006A4A23F480331360684B1B68674A23F4E2
:10240C00802313607B685B68002B13D0FFF7C4FC40
:10241C00386108E0FFF7C0FC02463B69D31A642B15
:10242C0001D9032300E25D4B1B6803F40033002B3E
:10243C00F0D014E0FFF7B0FC386108E0FFF7ACFC1B
:10244C0002463B69D31A642B01D90323ECE1534BAD
:10245C001B6803F40033002BF0D100E000BF7B6855
:10246C001B6803F00203002B63D04C4B5B6803F03A
:10247C000C03002B0BD0494B5B6803F00C03082BAF
:10248C001CD1464B5B6803F48033002B16D1434BB5
:10249C001B6803F00203002B05D07B681B69012B22
:1024AC0001D00123C0E13D4B1B6823F0F8027B688F
:1024BC005B69DB00394913430B603AE07B681B69AD
:1024CC00002B20D0364B01221A60FFF765FC3861D7
:1024DC0008E0FFF761FC02463B69D31A022B01D9D5
:1024EC000323A1E12D4B1B6803F00203002BF0D05A
:1024FC002A4B1B6823F0F8027B685B69DB002749D9
:10250C0013430B6015E0264B00221A60FFF744FCC6
:10251C00386108E0FFF740FC02463B69D31A022BF6
:10252C0001D9032380E11D4B1B6803F00203002B30
:10253C00F0D17B681B6803F00803002B3AD07B6852
:10254C009B69002B19D0174B01221A60FFF724FC52
:10255C00386108E0FFF720FC02463B69D31A022BD6
:10256C0001D9032360E10D4B5B6A03F00203002BDE
:10257C00F0D0012000F09CFA1CE00A4B00221A60FB
:10258C00FFF70AFC38610FE0FFF706FC02463B69D7
:10259C00D31A022B08D9032346E100BF00100240D6
:1025AC000000424280044242924B5B6A03F00203F9
:1025BC00002BE9D17B681B6803F00403002B00F0AF
:1025CC00A6800023FB758B4BDB6903F08053002B3B
:1025DC000DD1884BDB69874A43F08053D361854B1F
:1025EC00DB6903F08053BB60BB680123FB75824B36
:1025FC001B6803F48073002B18D17F4B1B687E4A39
:10260C0043F480731360FFF7C7FB386108E0FFF7F2
:10261C00C3FB02463B69D31A642B01D9032303E1A4
:10262C00754B1B6803F48073002BF0D07B68DB6860
:10263C00012B06D16F4B1B6A6E4A43F001031362E8
:10264C002DE07B68DB68002B0CD16A4B1B6A694A56
:10265C0023F001031362674B1B6A664A23F00403E1
:10266C0013621CE07B68DB68052B0CD1614B1B6A89
:10267C00604A43F0040313625E4B1B6A5D4A43F0ED
:10268C00010313620BE05B4B1B6A5A4A23F00103F4
:10269C001362584B1B6A574A23F0040313627B687E
:1026AC00DB68002B15D0FFF777FB38610AE0FFF7EA
:1026BC0073FB02463B69D31A41F28832934201D92B
:1026CC000323B1E04B4B1B6A03F00203002BEED04B
:1026DC0014E0FFF761FB38610AE0FFF75DFB02468F
:1026EC003B69D31A41F28832934201D903239BE010
:1026FC00404B1B6A03F00203002BEED1FB7D012B38
:10270C0005D13C4BDB693B4A23F08053D3617B689A
:10271C00DB69002B00F08780364B5B6803F00C0301
:10272C00082B61D07B68DB69022B46D1334B00222E
:10273C001A60FFF731FB386108E0FFF72DFB02460A
:10274C003B69D31A022B01D903236DE0294B1B687B
:10275C0003F00073002BF0D17B681B6AB3F5803F4C
:10276C0008D1244B5B6823F400327B689B682149B9
:10277C0013434B601F4B5B6823F474127B68196A1C
:10278C007B685B6A0B431B4913434B601B4B012259
:10279C001A60FFF701FB386108E0FFF7FDFA02460B
:1027AC003B69D31A022B01D903233DE0114B1B6863
:1027BC0003F00073002BF0D035E0104B00221A60B0
:1027CC00FFF7EAFA386108E0FFF7E6FA02463B69E0
:1027DC00D31A022B01D9032326E0064B1B6803F006
:1027EC000073002BF0D11EE07B68DB69012B07D155
:1027FC00012319E0001002400070004060004242CA
:10280C000B4B5B68FB60FB6803F480327B681B6AD4
:10281C009A4206D1FB6803F470127B685B6A9A4299
:10282C0001D0012300E0002318461837BD4680BDB7
:10283C000010024080B584B000AF786039607B68CE
:10284C00002B01D10123D0E06A4B1B6803F0070376
:10285C003A689A4210D9674B1B6823F00702654906
:10286C003B6813430B60634B1B6803F007033A6828
:10287C009A4201D00123B8E07B681B6803F0020385
:10288C00002B20D07B681B6803F00403002B05D0C1
:10289C00594B5B68584A43F4E06353607B681B6890
:1028AC0003F00803002B05D0534B5B68524A43F4EA
:1028BC0060535360504B5B6823F0F0027B689B685D
:1028CC004D4913434B607B681B6803F00103002BDD
:1028DC0040D07B685B68012B07D1474B1B6803F426
:1028EC000033002B15D101237FE07B685B68022B42
:1028FC0007D1414B1B6803F00073002B09D1012356
:10290C0073E03D4B1B6803F00203002B01D1012344
:10291C006BE0394B5B6823F003027B685B683649DC
:10292C0013434B60FFF738FAF8600AE0FFF734FA0C
:10293C000246FB68D31A41F28832934201D9032331
:10294C0053E02D4B5B6803F00C027B685B689B00CB
:10295C009A42EBD1274B1B6803F007033A689A4263
:10296C0010D2244B1B6823F0070222493B68134307
:10297C000B60204B1B6803F007033A689A4201D0A6
:10298C00012332E07B681B6803F00403002B08D0A2
:10299C00194B5B6823F4E0627B68DB6816491343D0
:1029AC004B607B681B6803F00803002B09D0124BAB
:1029BC005B6823F460527B681B69DB000E49134390
:1029CC004B6000F021F802460B4B5B681B0903F0CF
:1029DC000F030A49CB5C22FA03F3094A1360094B33
:1029EC001B681846FFF796F9002318461037BD46AA
:1029FC0080BD00BF0020024000100240643300087C
:102A0C00240000202800002080B487B000AF0023F1
:102A1C00FB600023BB6000237B6100237B600023F1
:102A2C003B611E4B5B68FB60FB6803F00C03042BE3
:102A3C0002D0082B03D027E0194B3B6127E0FB6841
:102A4C009B0C03F00F03174AD35C7B60FB6803F409
:102A5C008033002B10D0114B5B685B0C03F001032F
:102A6C00114AD35CBB607B680D4A03FB02F2BB6866
:102A7C00B2FBF3F37B6104E07B680C4A02FB03F3CB
:102A8C007B617B693B6102E0054B3B6100BF3B69AD
:102A9C0018461C37BD4680BC704700BF0010024072
:102AAC0000127A00743300088433000800093D00DA
:102ABC0080B485B000AF78600A4B1B680A4AA2FB51
:102ACC0003235B0A7A6802FB03F3FB6000BFFB681D
:102ADC005A1EFA60002BF9D100BF00BF1437BD4657
:102AEC0080BC704724000020D34D621080B582B0AA
:102AFC0000AF78607B68002B01D1012341E07B683B
:102B0C0093F83D30DBB2002B06D17B68002283F8B2
:102B1C003C207868FFF766F87B68022283F83D203A
:102B2C007B681A687B6804331946104600F074FA07
:102B3C007B68012283F846207B68012283F83E20C3
:102B4C007B68012283F83F207B68012283F84020B8
:102B5C007B68012283F841207B68012283F84220A4
:102B6C007B68012283F843207B68012283F8442090
:102B7C007B68012283F845207B68012283F83D2085
:102B8C00002318460837BD4680BD000080B485B0D0
:102B9C0000AF78607B6893F83D30DBB2012B01D03D
:102BAC0001233AE07B68022283F83D207B681B6896
:102BBC00DA687B681B6842F00102DA607B681B688C
:102BCC00184A93420ED07B681B68B3F1804F09D032
:102BDC007B681B68144A934204D07B681B68134AB9
:102BEC00934211D17B681B689B6803F00703FB6061
:102BFC00FB68062B10D07B681B681A687B681B6807
:102C0C0042F001021A6007E07B681B681A687B6857
:102C1C001B6842F001021A60002318461437BD46A7
:102C2C0080BC7047002C01400004004000080040AC
:102C3C0080B582B000AF78607B681B681B6903F0BD
:102C4C000203022B22D17B681B68DB6803F00203B2
:102C5C00022B1BD17B681B686FF002021A617B6828
:102C6C0001221A777B681B689B6903F00303002B16
:102C7C0003D0786800F0B4F905E0786800F0A7F9A3
:102C8C00786800F0B6F97B6800221A777B681B68BD
:102C9C001B6903F00403042B22D17B681B68DB68DF
:102CAC0003F00403042B1BD17B681B686FF0040238
:102CBC001A617B6802221A777B681B689B6903F494
:102CCC004073002B03D0786800F08AF905E078682F
:102CDC0000F07DF9786800F08CF97B6800221A7797
:102CEC007B681B681B6903F00803082B22D17B68E7
:102CFC001B68DB6803F00803082B1BD17B681B687F
:102D0C006FF008021A617B6804221A777B681B68D3
:102D1C00DB6903F00303002B03D0786800F060F943
:102D2C0005E0786800F053F9786800F062F97B6888
:102D3C0000221A777B681B681B6903F01003102BA9
:102D4C0022D17B681B68DB6803F01003102B1BD1AE
:102D5C007B681B686FF010021A617B6808221A7777
:102D6C007B681B68DB6903F44073002B03D0786825
:102D7C0000F036F905E0786800F029F9786800F081
:102D8C0038F97B6800221A777B681B681B6903F093
:102D9C000103012B0ED17B681B68DB6803F0010378
:102DAC00012B07D17B681B686FF001021A617868F0
:102DBC00FEF769FE7B681B681B6903F08003802BA0
:102DCC000ED17B681B68DB6803F08003802B07D176
:102DDC007B681B686FF080021A61786800F07BFAE0
:102DEC007B681B681B6903F04003402B0ED17B688A
:102DFC001B68DB6803F04003402B07D17B681B6822
:102E0C006FF040021A61786800F0FCF87B681B6870
:102E1C001B6903F02003202B0ED17B681B68DB6839
:102E2C0003F02003202B07D17B681B686FF0200276
:102E3C001A61786800F046FA00BF0837BD4680BDBD
:102E4C0080B584B000AF786039600023FB737B6879
:102E5C0093F83C30012B01D10223B4E07B680122B2
:102E6C0083F83C207B68022283F83D207B681B683A
:102E7C009B68BB60BB6823F07703BB60BB6823F423
:102E8C007F43BB607B681B68BA689A603B681B68B1
:102E9C00B3F5005F3ED0B3F5005F00F28780B3F569
:102EAC00805F00F08680B3F5805F7FD8702B1AD0DE
:102EBC00702B7BD8602B50D0602B77D8502B3CD00C
:102ECC00502B73D8402B58D0402B6FD8302B64D05C
:102EDC00302B6BD8202B60D0202B67D8002B5CD0EC
:102EEC00102B5AD062E07B6818683B6899683B6885
:102EFC005A683B68DB6800F068F97B681B689B6864
:102F0C00BB60BB6843F07703BB607B681B68BA6827
:102F1C009A604FE07B6818683B6899683B685A6810
:102F2C003B68DB6800F051F97B681B689A687B682A
:102F3C001B6842F480429A603CE07B6818683B68EE
:102F4C0059683B68DB681A4600F0C8F87B681B6858
:102F5C005021184600F01FF92CE07B6818683B687C
:102F6C0059683B68DB681A4600F0E6F87B681B681A
:102F7C006021184600F00FF91CE07B6818683B686C
:102F8C0059683B68DB681A4600F0A8F87B681B6838
:102F9C004021184600F0FFF80CE07B681A683B688B
:102FAC001B681946104600F0F6F803E00123FB738A
:102FBC0000E000BF7B68012283F83D207B68002283
:102FCC0083F83C20FB7B18461037BD4680BD80B48F
:102FDC0083B000AF786000BF0C37BD4680BC704733
:102FEC0080B483B000AF786000BF0C37BD4680BCA6
:102FFC00704780B483B000AF786000BF0C37BD461B
:10300C0080BC704780B483B000AF786000BF0C37D1
:10301C00BD4680BC7047000080B485B000AF7860BE
:10302C0039607B681B68FB607B68294A93420BD034
:10303C007B68B3F1804F07D07B68264A934203D05C
:10304C007B68254A934208D1FB6823F07003FB6030
:10305C003B685B68FA681343FB607B681C4A9342CD
:10306C000BD07B68B3F1804F07D07B68194A934231
:10307C0003D07B68184A934208D1FB6823F4407351
:10308C00FB603B68DB68FA681343FB60FB6823F06A
:10309C0080023B685B691343FB607B68FA681A60CB
:1030AC003B689A687B68DA623B681A687B689A624C
:1030BC007B68074A934203D13B681A697B681A63A1
:1030CC007B6801225A6100BF1437BD4680BC704733
:1030DC00002C0140000400400008004080B487B080
:1030EC0000AFF860B9607A60FB681B6A7B61FB68B3
:1030FC001B6A23F00102FB681A62FB689B693B6147
:10310C003B6923F0F0033B617B681B013A69134375
:10311C003B617B6923F00A037B617A69BB681343CB
:10312C007B61FB683A699A61FB687A691A6200BF35
:10313C001C37BD4680BC704780B487B000AFF860C8
:10314C00B9607A60FB681B6A7B61FB681B6A23F0C1
:10315C001002FB681A62FB689B693B613B6923F4B4
:10316C0070433B617B681B033A6913433B617B698A
:10317C0023F0A0037B61BB681B017A6913437B615D
:10318C00FB683A699A61FB687A691A6200BF1C375E
:10319C00BD4680BC704780B485B000AF78603960A4
:1031AC007B689B68FB60FB6823F07003FB603A68EC
:1031BC00FB68134343F00703FB607B68FA689A6073
:1031CC0000BF1437BD4680BC704780B487B000AFD9
:1031DC00F860B9607A603B60FB689B687B617B69D7
:1031EC0023F47F437B613B681A027B681A43BB68FC
:1031FC0013437A6913437B61FB687A699A6000BF59
:10320C001C37BD4680BC704780B485B000AF786079
:10321C0039607B6893F83C30012B01D1022346E0E6
:10322C007B68012283F83C207B68022283F83D20D6
:10323C007B681B685B68FB607B681B689B68BB607A
:10324C00FB6823F07003FB603B681B68FA68134350
:10325C00FB607B681B68FA685A607B681B68164ABF
:10326C0093420ED07B681B68B3F1804F09D07B680A
:10327C001B68124A934204D07B681B68104A934225
:10328C000CD1BB6823F08003BB603B685B68BA68F9
:10329C001343BB607B681B68BA689A607B68012229
:1032AC0083F83D207B68002283F83C2000231846DD
:1032BC001437BD4680BC7047002C01400004004010
:1032CC000008004080B483B000AF786000BF0C37BA
:1032DC00BD4680BC704780B483B000AF786000BF3F
:1032EC000C37BD4680BC704703460244934200D164
:1032FC00704703F8011BF9E770B500260C4D0D4C17
:10330C00641BA410A64209D100F01AF800260A4D3D
:10331C000A4C641BA410A64205D170BD55F8043BA1
:10332C0098470136EEE755F8043B98470136F2E72B
:10333C008833000888330008883300088C33000871
:10334C00F8B500BFF8BC08BC9E467047F8B500BF86
:08335C00F8BC08BC9E46704756
:103364000000000000000000010203040607080931
:1033740002030405060708090A0B0C0D0E0F1010B2
:043384000102000042
:043388003101000807
:04338C000D01000827
:103390000A00000008000000020000000A0000000F
:1033A00008000000020000000A0000000800000001
:1033B000070408000024F4001000000001000000D1
:0400000508001CA92A
:00000001FF
